{
  "contractName": "MultuSig",
  "abi": [
    {
      "inputs": [
        {
          "internalType": "address[]",
          "name": "_approvers",
          "type": "address[]"
        },
        {
          "internalType": "uint256",
          "name": "_quorum",
          "type": "uint256"
        }
      ],
      "stateMutability": "payable",
      "type": "constructor"
    },
    {
      "inputs": [
        {
          "internalType": "uint256",
          "name": "",
          "type": "uint256"
        }
      ],
      "name": "approvers",
      "outputs": [
        {
          "internalType": "address",
          "name": "",
          "type": "address"
        }
      ],
      "stateMutability": "view",
      "type": "function"
    },
    {
      "inputs": [],
      "name": "quorum",
      "outputs": [
        {
          "internalType": "uint256",
          "name": "",
          "type": "uint256"
        }
      ],
      "stateMutability": "view",
      "type": "function"
    },
    {
      "inputs": [
        {
          "internalType": "uint256",
          "name": "amount",
          "type": "uint256"
        },
        {
          "internalType": "address payable",
          "name": "to",
          "type": "address"
        }
      ],
      "name": "createTransfer",
      "outputs": [],
      "stateMutability": "nonpayable",
      "type": "function"
    },
    {
      "inputs": [
        {
          "internalType": "uint256",
          "name": "id",
          "type": "uint256"
        }
      ],
      "name": "sendTrasfer",
      "outputs": [],
      "stateMutability": "nonpayable",
      "type": "function"
    }
  ],
  "bytecode": "0x60806040526040516109323803806109328339818101604052604081101561002657600080fd5b810190808051604051939291908464010000000082111561004657600080fd5b8382019150602082018581111561005c57600080fd5b825186602082028301116401000000008211171561007957600080fd5b8083526020830192505050908051906020019060200280838360005b838110156100b0578082015181840152602081019050610095565b505050509050016040526020018051906020019092919050505081600390805190602001906100e09291906100ef565b508060048190555050506101bc565b828054828255906000526020600020908101928215610168579160200282015b828111156101675782518260006101000a81548173ffffffffffffffffffffffffffffffffffffffff021916908373ffffffffffffffffffffffffffffffffffffffff1602179055509160200191906001019061010f565b5b5090506101759190610179565b5090565b6101b991905b808211156101b557600081816101000a81549073ffffffffffffffffffffffffffffffffffffffff02191690555060010161017f565b5090565b90565b610767806101cb6000396000f3fe608060405234801561001057600080fd5b506004361061004c5760003560e01c80631703a018146100515780634c12fa471461006f57806359c6df42146100bd578063d3650fb8146100eb575b600080fd5b610059610159565b6040518082815260200191505060405180910390f35b6100bb6004803603604081101561008557600080fd5b8101908080359060200190929190803573ffffffffffffffffffffffffffffffffffffffff16906020019092919050505061015f565b005b6100e9600480360360208110156100d357600080fd5b8101908080359060200190929190505050610365565b005b6101176004803603602081101561010157600080fd5b81019080803590602001909291905050506106f5565b604051808273ffffffffffffffffffffffffffffffffffffffff1673ffffffffffffffffffffffffffffffffffffffff16815260200191505060405180910390f35b60045481565b600080905060008090505b6003805490508110156101f4573373ffffffffffffffffffffffffffffffffffffffff166003828154811061019b57fe5b9060005260206000200160009054906101000a900473ffffffffffffffffffffffffffffffffffffffff1673ffffffffffffffffffffffffffffffffffffffff1614156101e757600191505b808060010191505061016a565b50600115158115151461026f576040517f08c379a00000000000000000000000000000000000000000000000000000000081526004018080602001828103825260168152602001807f4f6e6c7920617070726f7665727320616c6c6f7765640000000000000000000081525060200191505060405180910390fd5b6040518060a0016040528060025481526020018481526020018373ffffffffffffffffffffffffffffffffffffffff16815260200160008152602001600015158152506000806002548152602001908152602001600020600082015181600001556020820151816001015560408201518160020160006101000a81548173ffffffffffffffffffffffffffffffffffffffff021916908373ffffffffffffffffffffffffffffffffffffffff1602179055506060820151816003015560808201518160040160006101000a81548160ff021916908315150217905550905050600260008154809291906001019190505550505050565b600080905060008090505b6003805490508110156103fa573373ffffffffffffffffffffffffffffffffffffffff16600382815481106103a157fe5b9060005260206000200160009054906101000a900473ffffffffffffffffffffffffffffffffffffffff1673ffffffffffffffffffffffffffffffffffffffff1614156103ed57600191505b8080600101915050610370565b506001151581151514610475576040517f08c379a00000000000000000000000000000000000000000000000000000000081526004018080602001828103825260168152602001807f4f6e6c7920617070726f7665727320616c6c6f7765640000000000000000000081525060200191505060405180910390fd5b6000151560008084815260200190815260200160002060040160009054906101000a900460ff16151514610511576040517f08c379a00000000000000000000000000000000000000000000000000000000081526004018080602001828103825260128152602001807f5472616e73666572206265656e2073656e74000000000000000000000000000081525060200191505060405180910390fd5b60045460008084815260200190815260200160002060030154106105ff57600160008084815260200190815260200160002060040160006101000a81548160ff021916908315150217905550600080600084815260200190815260200160002060020160009054906101000a900473ffffffffffffffffffffffffffffffffffffffff16905060008060008581526020019081526020016000206001015490508173ffffffffffffffffffffffffffffffffffffffff166108fc829081150290604051600060405180830381858888f193505050501580156105f7573d6000803e3d6000fd5b5050506106f1565b60001515600160003373ffffffffffffffffffffffffffffffffffffffff1673ffffffffffffffffffffffffffffffffffffffff168152602001908152602001600020600084815260200190815260200160002060009054906101000a900460ff16151514156106f05760011515600160003373ffffffffffffffffffffffffffffffffffffffff1673ffffffffffffffffffffffffffffffffffffffff168152602001908152602001600020600084815260200190815260200160002060009054906101000a90505050600080838152602001908152602001600020600301600081548092919060010191905055505b5b5050565b6003818154811061070257fe5b906000526020600020016000915054906101000a900473ffffffffffffffffffffffffffffffffffffffff168156fea26469706673582212201d8a8bebccae393343b123c9f9cf5b5ffea6e7072f64fb274846a97ff6bf2dc064736f6c63430006060033",
  "immutableReferences": {},
  "source": "//SPDX-License-Indentifier: MIT\r\n\r\npragma solidity ^0.6.6;\r\n\r\ncontract MultuSig {\r\n    struct Transfer {\r\n        uint256 id;\r\n        uint256 amount;\r\n        address payable to;\r\n        uint256 approvals;\r\n        bool sent;\r\n    }\r\n    mapping(uint256 => Transfer) transfers;\r\n    mapping(address => mapping(uint256 => bool)) approvals;\r\n    uint256 nextId;\r\n\r\n    //list of approved users\r\n    address[] public approvers;\r\n    uint256 public quorum;\r\n\r\n    constructor(address[] memory _approvers, uint256 _quorum) public payable {\r\n        approvers = _approvers;\r\n        quorum = _quorum;\r\n    }\r\n\r\n    function createTransfer(uint256 amount, address payable to)\r\n        external\r\n        onlyApprover\r\n    {\r\n        // container for all transfers\r\n        transfers[nextId] = Transfer(nextId, amount, to, 0, false);\r\n        nextId++;\r\n    }\r\n\r\n    function sendTrasfer(uint256 id) external onlyApprover {\r\n        require(transfers[id].sent == false, \"Transfer been sent\");\r\n        if (transfers[id].approvals >= quorum) {\r\n            transfers[id].sent = true;\r\n            address payable to = transfers[id].to;\r\n            uint256 amount = transfers[id].amount;\r\n            to.transfer(amount);\r\n            return;\r\n        }\r\n        if (approvals[msg.sender][id] == false) {\r\n            approvals[msg.sender][id] == true;\r\n            transfers[id].approvals++;\r\n        }\r\n    }\r\n\r\n    modifier onlyApprover() {\r\n        bool allowed = false;\r\n        for (uint256 i = 0; i < approvers.length; i++) {\r\n            if (approvers[i] == msg.sender) {\r\n                allowed = true;\r\n            }\r\n        }\r\n        require(allowed == true, \"Only approvers allowed\");\r\n        _;\r\n    }\r\n}\r\n",
  "sourcePath": "E:\\CloudTech\\Cloud Tech _ Websites\\Solidity\\MultiSig\\contracts\\MultiSig.sol",
  "compiler": {
    "name": "solc",
    "version": "0.6.6+commit.6c089d02.Emscripten.clang"
  },
  "schemaVersion": "3.4.4",
  "updatedAt": "2022-01-25T02:13:20.343Z",
  "devdoc": {
    "methods": {}
  },
  "userdoc": {
    "methods": {}
  }
}